{
  "contractName": "VendingMachine",
  "abi": [
    {
      "inputs": [],
      "stateMutability": "nonpayable",
      "type": "constructor"
    },
    {
      "inputs": [
        {
          "internalType": "address",
          "name": "",
          "type": "address"
        }
      ],
      "name": "candyBalances",
      "outputs": [
        {
          "internalType": "uint256",
          "name": "",
          "type": "uint256"
        }
      ],
      "stateMutability": "view",
      "type": "function",
      "constant": true
    },
    {
      "inputs": [],
      "name": "owner",
      "outputs": [
        {
          "internalType": "address",
          "name": "",
          "type": "address"
        }
      ],
      "stateMutability": "view",
      "type": "function",
      "constant": true
    },
    {
      "inputs": [],
      "name": "getVendingMachineBalance",
      "outputs": [
        {
          "internalType": "uint256",
          "name": "",
          "type": "uint256"
        }
      ],
      "stateMutability": "view",
      "type": "function",
      "constant": true
    },
    {
      "inputs": [
        {
          "internalType": "uint256",
          "name": "amount",
          "type": "uint256"
        }
      ],
      "name": "restock",
      "outputs": [],
      "stateMutability": "nonpayable",
      "type": "function"
    },
    {
      "inputs": [
        {
          "internalType": "uint256",
          "name": "amount",
          "type": "uint256"
        }
      ],
      "name": "purchase",
      "outputs": [],
      "stateMutability": "payable",
      "type": "function",
      "payable": true
    }
  ],
  "bytecode": "0x608060405234801561001057600080fd5b50336000806101000a81548173ffffffffffffffffffffffffffffffffffffffff021916908373ffffffffffffffffffffffffffffffffffffffff1602179055506064600160003073ffffffffffffffffffffffffffffffffffffffff1673ffffffffffffffffffffffffffffffffffffffff1681526020019081526020016000208190555061086e806100a56000396000f3fe60806040526004361061004a5760003560e01c80638da5cb5b1461004f578063c21a702a1461007a578063e7644d34146100a3578063efef39a1146100ce578063f6a7e886146100ea575b600080fd5b34801561005b57600080fd5b50610064610127565b6040516100719190610458565b60405180910390f35b34801561008657600080fd5b506100a1600480360381019061009c91906104ae565b61014b565b005b3480156100af57600080fd5b506100b8610232565b6040516100c591906104ea565b60405180910390f35b6100e860048036038101906100e391906104ae565b610279565b005b3480156100f657600080fd5b50610111600480360381019061010c9190610531565b6103ff565b60405161011e91906104ea565b60405180910390f35b60008054906101000a900473ffffffffffffffffffffffffffffffffffffffff1681565b60008054906101000a900473ffffffffffffffffffffffffffffffffffffffff1673ffffffffffffffffffffffffffffffffffffffff163373ffffffffffffffffffffffffffffffffffffffff16146101d9576040517f08c379a00000000000000000000000000000000000000000000000000000000081526004016101d0906105e1565b60405180910390fd5b80600160003073ffffffffffffffffffffffffffffffffffffffff1673ffffffffffffffffffffffffffffffffffffffff16815260200190815260200160002060008282546102289190610630565b9250508190555050565b6000600160003073ffffffffffffffffffffffffffffffffffffffff1673ffffffffffffffffffffffffffffffffffffffff16815260200190815260200160002054905090565b662386f26fc100008161028c9190610686565b3410156102ce576040517f08c379a00000000000000000000000000000000000000000000000000000000081526004016102c590610752565b60405180910390fd5b80600160003073ffffffffffffffffffffffffffffffffffffffff1673ffffffffffffffffffffffffffffffffffffffff168152602001908152602001600020541015610350576040517f08c379a0000000000000000000000000000000000000000000000000000000008152600401610347906107e4565b60405180910390fd5b80600160003073ffffffffffffffffffffffffffffffffffffffff1673ffffffffffffffffffffffffffffffffffffffff168152602001908152602001600020600082825461039f9190610804565b9250508190555080600160003373ffffffffffffffffffffffffffffffffffffffff1673ffffffffffffffffffffffffffffffffffffffff16815260200190815260200160002060008282546103f59190610630565b9250508190555050565b60016020528060005260406000206000915090505481565b600073ffffffffffffffffffffffffffffffffffffffff82169050919050565b600061044282610417565b9050919050565b61045281610437565b82525050565b600060208201905061046d6000830184610449565b92915050565b600080fd5b6000819050919050565b61048b81610478565b811461049657600080fd5b50565b6000813590506104a881610482565b92915050565b6000602082840312156104c4576104c3610473565b5b60006104d284828501610499565b91505092915050565b6104e481610478565b82525050565b60006020820190506104ff60008301846104db565b92915050565b61050e81610437565b811461051957600080fd5b50565b60008135905061052b81610505565b92915050565b60006020828403121561054757610546610473565b5b60006105558482850161051c565b91505092915050565b600082825260208201905092915050565b7f4f6e6c7920746865206f776e65722063616e20726573746f636b20746869732060008201527f76656e64696e67206d616368696e652e00000000000000000000000000000000602082015250565b60006105cb60308361055e565b91506105d68261056f565b604082019050919050565b600060208201905081810360008301526105fa816105be565b9050919050565b7f4e487b7100000000000000000000000000000000000000000000000000000000600052601160045260246000fd5b600061063b82610478565b915061064683610478565b9250827fffffffffffffffffffffffffffffffffffffffffffffffffffffffffffffffff0382111561067b5761067a610601565b5b828201905092915050565b600061069182610478565b915061069c83610478565b9250817fffffffffffffffffffffffffffffffffffffffffffffffffffffffffffffffff04831182151516156106d5576106d4610601565b5b828202905092915050565b7f596f75206d757374207061792061746c6561737420302e30312065746865722060008201527f7065722063616e64790000000000000000000000000000000000000000000000602082015250565b600061073c60298361055e565b9150610747826106e0565b604082019050919050565b6000602082019050818103600083015261076b8161072f565b9050919050565b7f536f727279212c2043616e6469657320617265204f7574206f662053746f636b60008201527f2e2e2e0000000000000000000000000000000000000000000000000000000000602082015250565b60006107ce60238361055e565b91506107d982610772565b604082019050919050565b600060208201905081810360008301526107fd816107c1565b9050919050565b600061080f82610478565b915061081a83610478565b92508282101561082d5761082c610601565b5b82820390509291505056fea2646970667358221220f00eb3629cf1c5d6deb05bd0e2f96d856ab92021a7e6e20b5f5a226a1ef2ac8564736f6c634300080b0033",
  "immutableReferences": {},
  "source": "// SPDX-License-Identifier: MIT\r\npragma solidity >=0.7.0 <0.9.0;\r\n\r\ncontract VendingMachine{\r\n    address public owner;\r\n    mapping(address => uint) public candyBalances;\r\n\r\n    constructor() {\r\n        owner = msg.sender;\r\n        candyBalances[address(this)] = 100;\r\n    }\r\n\r\n    function getVendingMachineBalance() public view returns(uint)  {\r\n        return candyBalances[address(this)];\r\n    }\r\n\r\n    function restock(uint amount) public {\r\n        require(msg.sender == owner, \"Only the owner can restock this vending machine.\");\r\n        candyBalances[address(this)] += amount;        \r\n    }\r\n\r\n    function purchase(uint amount) public payable{\r\n        require(msg.value >= amount * 0.01 ether, \"You must pay atleast 0.01 ether per candy\");\r\n        require(candyBalances[address(this)] >= amount, \"Sorry!, Candies are Out of Stock...\");\r\n        candyBalances[address(this)] -= amount;    \r\n        candyBalances[msg.sender] += amount;    \r\n    }\r\n}",
  "sourcePath": "D:\\blockchain-projects\\truffle-tutorial\\vendingMachine\\contracts\\VendingMachine.sol",
  "compiler": {
    "name": "solc",
    "version": "0.8.11+commit.d7f03943.Emscripten.clang"
  },
  "schemaVersion": "3.4.5",
  "updatedAt": "2022-03-03T17:06:16.478Z",
  "networkType": "ethereum",
  "devdoc": {
    "kind": "dev",
    "methods": {},
    "version": 1
  },
  "userdoc": {
    "kind": "user",
    "methods": {},
    "version": 1
  }
}